:020000040800F2
:10000000D012002045010008E7180008D5150008A7
:10001000E518000865120008E52B00080000000044
:100020000000000000000000000000004D22000859
:1000300067120008000000000B1D0008692300087B
:100040005F0100085F0100085F0100085F01000810
:100050005F0100085F0100085F0100085F01000800
:100060005F0100085F0100085F0100085F010008F0
:100070005F0100085F0100085F0100085F010008E0
:100080005F0100085F0100085F0100085F010008D0
:100090005F0100085F0100085F0100085F010008C0
:1000A0005F0100085F0100085F0100085F010008B0
:1000B0005F0100085F0100085F0100085F010008A0
:1000C0005F0100085F0100085F0100085F01000890
:1000D0005F010008512A00085F0100085F01000865
:1000E0005F0100085F0100085F0100085F01000870
:1000F0005F0100085F0100085F0100085F01000860
:100100005F0100085F0100085F0100085F0100084F
:100110005F0100085F0100085F0100085F0100083F
:100120005F0100085F0100085F0100085F0100082F
:10013000DFF80CD000F050FD004800471D4F0008CC
:10014000D01200200648804706480047FEE7FEE739
:10015000FEE7FEE7FEE7FEE7FEE7FEE7FEE7FEE777
:100160007923000831010008D2B201E000F8012B28
:10017000491EFBD270470022F6E710B513460A4627
:1001800004461946FFF7F0FF204610BD30B505467E
:100190002A460B4612F8010B13F8014B08B1A04296
:1001A000F8D01CB1002802D06D1CF1E7284630BD04
:1001B000421C10F8011B0029FBD1801A704730B592
:1001C00004460020034600E05B1C934203D2E05C3F
:1001D000CD5C401BF8D030BD70B50F4D00B928681C
:1001E000002412E00A4602E09E4203D0521C13781B
:1001F000002BF9D1DAB2224305D02BB124B1002172
:1002000000F8011B04E00446401C0678002EE9D1EA
:100210002860204670BD00001C04002070B5064612
:1002200002F01AFD046805460A220021304600F05B
:100230009DFB2C6070BDF0B480EA0102D40F420037
:10024000B2EB410F02D20246084611464A0042D0A4
:10025000C30DDDB2C1F3C752AD1A202D35DAC1F39B
:10026000160141F4000204B15242C5F1200602FA1F
:1002700006F12A411044B3EBD05F23D0C4B1012D65
:10028000A0EBC35009DCF0BC4FF0004202EAC352BD
:10029000DBB200F5000000F0AABB400000F1807066
:1002A00000EBC350A0F1807040EAD170490009E032
:1002B000490841EAC071A0EBC35000F500004008B6
:1002C00000EBC350F0BC00F089BB6142012202EB9D
:1002D0004101001BF6E7F0BC704781F00041AAE73E
:1002E00080F00040A7E730B480EA010202F0004548
:1002F00030F0004221F0004013D090B1C30DD40D76
:10030000C2F31601C0F31600E41A41F4000140F4F0
:1003100000027D34914201D3641C00E04900002CAE
:1003200002DA30BC002070474FF4000000239142F5
:1003300001D3891A034340084FEA4101F7D151B173
:10034000914202D14FF0004105E002D24FF001018D
:1003500001E06FF0010103EBC450284430BC00F011
:100360003DBB2DE9FE4F804681EA0300C00F0C46DD
:10037000009021F0004123F00045B8EB0200A941B4
:1003800005D24046214690461C460B46024623F0C5
:100390000040104347D0270DC7F30A00C3F30A51AA
:1003A0000290401A019040286BDAC3F3130040F426
:1003B000801B0098924620B10023D2EB030A63EB26
:1003C0000B0B01985946C0F14002504600F09DFACF
:1003D00006460D4650465946019A00F0B5FA10EB14
:1003E00008006141002487EA115284EAE7731A4346
:1003F00040D0009A62B3019A012A4FEA075215DCF5
:10040000001B61EB02014FF0004202EA0752CDE906
:100410000042001C41F5801132462B4600F024FBBF
:1004200003B0BDE8F08F40462146F9E7001B61EBC1
:100430000201001C41F5801300185B412018A2F551
:10044000001747EB030140EAD570B6196D4111E082
:100450006D084FEA360645EAC0754FEA0752001BA1
:1004600061EB0201001C41F5801149084FEA3000A0
:100470000019514132462B4603B0BDE8F04F00F061
:10048000E4BA0098012240000023D0EB020263EBA3
:10049000E073009821464FEAE074B8EB000061EB8E
:1004A0000401E9E783F000435BE781F0004158E78E
:1004B0002DE9FE4F81EA030404F0004421F00041DD
:1004C00000944FF0000B23F0004350EA01045ED08B
:1004D00052EA03045BD0C3F30A54C1F30A552C4417
:1004E000A4F2F3340194A0FB0254C1F3130141F4CC
:1004F0008011C3F3130343F4801301FB024400FB98
:10050000034E840A970A44EA815447EA8357A4FBBE
:10051000076802958D0A05FB07854FEA932C04FBBB
:100520000C542705029D4FEA065847EA1637B5EBEB
:1005300008056EEB070C870E920E47EA811742EA18
:100540008312A7FB0201B6EB0B0164EB00042B0D39
:1005500043EA0C335E1844EB1C50DA465146E7FB85
:100560000201C5F313044FEA0B3343EA14534FEA75
:100570000432019C43EA0603A4F10C040294009C9B
:10058000CDE900B400F070FA03B0BDE8F08F0020B0
:100590000146F9E72DE9F04D81EA030404F0004B30
:1005A00021F0004514464FF0000A23F0004150EAC4
:1005B000050220D054EA01021DD0C5F30A570246B5
:1005C000C5F31303C1F31300C1F30A5640F48015B9
:1005D00043F48013A7EB0608101BD64608F2FD383B
:1005E00073EB050002D308F1010801E092185B41AA
:1005F000B8F1000F03DA00200146BDE8F08D0020BD
:100600004FF48011064684460EE0171B73EB050776
:1006100005D3121B63EB050306434CEA010C4908A2
:100620004FEA300092185B4150EA0107EDD152EADF
:10063000030012D082EA040083EA0501084305D0D2
:10064000101BAB4106D20122002306E000224FF02E
:10065000004302E06FF0010253101AEB06004CEB6E
:10066000085110EB0A0041EB0B01BDE8F04D00F022
:10067000ECB970B521F0004303430CD0C1F30A5527
:100680000024D5EB040564EB0403D617AD1AB3417F
:1006900002DB0020014670BD201841EB025170BD05
:1006A000C10F80EAE0700844CA079623002100F0D9
:1006B0009EB996230022114600F099B90EB5C10FDC
:1006C00080EAE0700844CA07002140F233438DE815
:1006D0000E000A460B4600F0C7F903B000BD0EB588
:1006E00040F2334102910021CDE900110A460B4648
:1006F00000F0BAF903B000BD3EB5CA17CB0F002415
:1007000050405140C0186141DA0740F23343009431
:10071000CDE901232246234600F0A6F903B030BDFF
:1007200000F0004220F00040C10DC0F3160040F47C
:1007300000007F2901DA00207047962903DCC1F10F
:100740009601C84001E096398840002AF4D0404222
:10075000704770B5C1F30A5201F000450024C1F39F
:10076000130140F2FF3341F480119A4201DA002074
:1007700070BD40F233439A42A2F2334203DC52424C
:1007800000F0D2F800E090402C43F1D0404270BD20
:1007900070B5C1F30A5201F000450024C1F3130102
:1007A00040F2FF3341F480119A4202DA0020014600
:1007B00070BD40F233439A42A2F2334203DC52420C
:1007C00000F0B2F801E000F0A0F82C43F0D00023D4
:1007D000D0EB030063EB010170BD00F0004230F08C
:1007E00000400AD0C10D01F56071C0F3160042EA65
:1007F0000151C2084007114370470020014670476D
:1008000030B5041E71F1000404DB4FF00044404297
:1008100064EB0101141E73F1000405DB1C464FF06C
:100820000043524263EB0403994208BF904230BD3B
:1008300001F0004330B421F0004150EA010206D03B
:100840000A0DA2F56072C1F31301002A02DC30BC6C
:1008500000207047440F44EAC104C100E01830BCD6
:1008600000EBC25000F0BAB8002801DBC0F1004034
:10087000002901DBC1F100418842704730B50B46C9
:10088000014600202022012409E021FA02F59D42C0
:1008900005D303FA02F5491B04FA02F52844151E94
:1008A000A2F10102F1DC30BD2DE9F05F0546002028
:1008B00092469B4688460646814640241BE02846D1
:1008C00041464746224600F02FF853465A46C01A82
:1008D000914110D311461846224600F016F82D1A01
:1008E00067EB01084F4622460120002100F00DF879
:1008F00017EB00094E41201EA4F10104DFDC48463D
:1009000031462A464346BDE8F09F202A04DB203AC0
:1009100000FA02F1002070479140C2F1200320FA52
:1009200003F3194390407047202A04DB203A21FA50
:1009300002F00021704721FA02F3D040C2F12002F8
:100940009140084319467047202A06DBCB17203A0E
:1009500041FA02F043EAE07306E041FA02F3D040C4
:10096000C2F1200291400843194670472DE9F04733
:1009700091460F4680460446002614F8015B2DB1CF
:1009800000F03CF90068405DC007F6D12B2D02D085
:100990002D2D18D0641E4A463946204600F032F903
:1009A00027B13968A14201D1C7F8008071054FF025
:1009B00002040BD54042002803DD02F04DF904602B
:1009C000A007BDE8F08746F48066E4E70028F8DA7F
:1009D00002F042F904606FF00040F2E70029A8BF7E
:1009E0007047401C490008BF20F00100704710B458
:1009F000B0FA80FC00FA0CF050EA010404BF10BC0D
:100A0000704749B1CCF1200421FA04F411FA0CF139
:100A100018BF012121430843A3EB0C01CB1D4FEA72
:100A200000614FEA102042BF002010BC704700EB6D
:100A3000C35010440029A4BF10BC7047401C49009B
:100A400008BF20F0010010BC704710B5141E73F1F0
:100A5000000408DA401C41F1000192185B411A437E
:100A600001D120F0010010BD2DE9F04D92469B46CA
:100A700011B1B1FA81F202E0B0FA80F22032904670
:100A8000FFF743FF04460F4640EA0A0041EA0B0124
:100A900053465A46084313D0114653EA010019D071
:100AA000C8F140025046FFF73FFF05460E4650464C
:100AB00059464246FFF729FF084305D0012004E0CC
:100AC00020463946BDE8F08D0020054346EAE07631
:100AD0002C4337430A986305E40AA0EB0800002280
:100AE000FD0A44EA47540A3002D500200146E9E7EE
:100AF000010510196941DDE9084500196941BDE8A2
:100B0000F04DA2E72DE9F04D00231A461B1A8A4149
:100B100003DB00200146BDE8F08DC1F30A52C1F3AA
:100B2000130141F480154FF0000BD10702D10018DA
:100B30006D41521E0027044640F2FF11384601EB7A
:100B4000620A3E468046024600204FF48011FFF7BD
:100B5000EBFEC2197141BB1846EB0100B4EB030C6C
:100B600075EB000C04D3E41A65EB000517460E463E
:100B7000241908F101006D4180463428E3DDF9199C
:100B800046EB0600091BA84103D24FF0FF32134683
:100B900001E0002213461BEB070046EB0A51BDE8BB
:100BA000F04DFFF752BFC1F30A52C1F3130140F2F7
:100BB000FF3341F480119A4202DA00200146704767
:100BC00040F233439A42A2F2334202DC5242FFF730
:100BD000ABBEFFF79ABE0000064C074D06E0E0688A
:100BE00040F0010394E8070098471034AC42F6D374
:100BF000FFF7A2FAB0680008D06800080048704704
:100C00003C6800082DE9F05F824600780027154611
:100C10008B460AF10104B946302801D09DB113E09A
:100C200014F8010B0127782803D0582801D045B1CA
:100C30000AE00DB1102D07D10027102514F8010B83
:100C400002E0082500E00A250026B0460EE005FB7C
:100C5000080005FB06F1012701EB10461FFA80F89A
:100C6000B6F5803F00D3B94614F8010B294600F0D1
:100C700018F80028EBDABBF1000F05D00FB1641EA5
:100C800000E05446CBF80040B9F1000F06D001F067
:100C9000E3FF02210160C81EBDE8F09F48EA06405C
:100CA000FAE73A2800D2303820F02002412A01D356
:100CB000A2F13700884201D34FF0FF30704770B582
:100CC0008C1810F8015B15F0070301D110F8013BF7
:100CD0002A1106D110F8012B03E010F8016B01F87E
:100CE000016B5B1EF9D12B0705D40023521E0DD4D6
:100CF00001F8013BFAE710F8013BCB1A921C03E024
:100D000013F8015B01F8015B521EF9D5A142D8D35B
:100D1000002070BDA84EA94CA94F90B04FF02D0BEC
:100D20004FF4814A4FF00009002003F057FE0020E5
:100D300003F092FD00210F2003F045FD3042A0603A
:100D4000F8D0208940047DD5524600210F2003F0C1
:100D5000E8FE0021102003F036FD40B2B0F5806FB0
:100D600004DC81B20022964803F061FDB978584650
:100D7000B1FBF0F20BFB121223799A42D4D1B1FBF2
:100D8000F0F20BFB12100E90FD788C4987F8029060
:100D9000C84687F803900A2243318948FFF70FFAC3
:100DA00080B186490A2285318548FFF708FA217902
:100DB0000843B9D1F87A01287DD0B87A814904F086
:100DC000EBFEB1E703F06CFFC4E904014FF4FA70E5
:100DD00003F0EDFD40F6E44003F000FE7748217893
:100DE0004F3000228170C57001460F2003F0C7FE0E
:100DF00000210F2003F0D4FE022003F021FE002189
:100E00000F2003F0E0FC3042A060F8D020894004BD
:100E100099D5524600210F2003F083FE00211020B7
:100E200003F0D1FC00F07F01182903DC00226448A4
:100E300003F0FDFC87F80280F9784046A942C0D152
:100E4000F87000E0ABE05D490A225E315C48FFF7D4
:100E5000B6F90028B5D103F036FFC4E9060103F066
:100E60001FFFC4E9080156480CA90A3003F0EAFE46
:100E700053480DA90E3003F0E5FE514807A9123082
:100E800003F0E0FE21690891D4F81880216A0291EC
:100E90000D980C990190401AFFF721FCCDE905103F
:100EA0000299A1EB0800FFF71AFCCDE9031007999E
:100EB0000198081A00E078E0FFF711FCCDE9011075
:100EC0000899A8EB0100FFF70AFC08910090DDE902
:100ED0000510DDE90332FFF744FADDE90132FFF7DF
:100EE00040FA089B009AFFF73CFACDE90910DDE9CA
:100EF0000110089B009AFFF7DBFA01918046DDE9BB
:100F00000510DDE90332FFF7D3FA4246019BFFF7F4
:100F1000C9FADDE90932FFF73DFBFFF739FCFFF7BE
:100F2000EBFB294A294BFFF7C3FA4FF09852284BA5
:100F3000C4E90A01FFF7BCFAC4E90C01FFF778FC29
:100F40001E4B014638335A78187803F051FBD4E928
:100F50000C23FFF7AAFA00221E4BC4E90C01FFF78D
:100F6000A7FAFFF7F6FB642290FBF2F31349763100
:100F70008B7290FBF2F302FB1300C8720E98087399
:100F800020788870CD7000220F2003F0F8FD00213A
:100F90000F2003F005FE002003F052FDC4E60E4AC8
:100FA00000210F2003F0BDFDBEE60548FD70397B32
:100FB0000D3001F00BFEB7E600D0272430030020EF
:100FC000B40C002018040020FA48CE3B1835B13D7F
:100FD00019DDB141000059400090272410B50228C6
:100FE00007D102F09DFE4FF0FF3420B102F0B2FDB8
:100FF00008B1012010BD204610BD00007CB5274D72
:10100000022805D00024032807D001282DD042E073
:101010004220ADF80000012220E021A11068FFF776
:10102000DBF8FFF7FBF880B200944FF0FF36019435
:10103000012801D020B116E00120ADF8000001E048
:10104000ADF8004016A10020FFF7C6F8FFF7E6F85C
:1010500080B2FF2807D8ADF8020002226946284670
:1010600000F08CF917E030467CBD009403226946FD
:101070002846019400F056F9BDF8001009A001F0CF
:10108000B3FDBDF802100AA001F0AEFDBDF80410DA
:101090000AA001F0A9FD01207CBD000000000108AC
:1010A0002C00000062756666303A25640D0A000067
:1010B00062756666313A25640D0A000062756666DF
:1010C000323A25640D0A0000012070471CB5022841
:1010D00009D106490322D1E90201CDE9000169469F
:1010E000034800F04BF901201CBD00007C5D0008A6
:1010F0000000010810B5022801D0012010BD06A093
:1011000001F072FD06480168064A01F4E0611143EE
:101110000160BFF3408FFEE70D0A4F4B0D0A000040
:101120000CED00E00400FA0538B5022818D10024BF
:101130006846009400F000FF0098FFF74EFB02465F
:101140000B4608A001F050FD6846009400F098FEA0
:101150000098FFF742FB02460B4604A001F044FD55
:10116000012038BD543A25660D0A0000483A25662C
:101170000D0A000008B502280CD100200090684636
:1011800002F04EFF0098FFF728FB02460B4602A034
:1011900001F02AFD012008BD616E676C653A256685
:1011A0000D0A000010B502280DD003280BD108A1AC
:1011B0001068FFF711F8FFF731F880B2411F2D29B1
:1011C00003D804490860012010BD4FF0FF3010BD66
:1011D0002C0000001000002010B5022810D00328B9
:1011E0000ED108A11068FEF7F7FFFFF717F880B2DD
:1011F0000549012803D010B14FF0FF3010BD087031
:10120000012010BD2C000000C400002010B50228F1
:1012100006D0032804D0012802D102A001F0E4FC8A
:10122000012010BD4149542D425530312D444220FA
:10123000563130302054323032302D352D31370D8B
:101240000A000000064B0020014603F1B40200BF73
:1012500043F8201042F82010401C2D28F8DB70477E
:10126000F0080020FEE770470349024600200968A5
:10127000114200D0012070470004014070B50546BE
:101280004FF43026304600F067F8042811D1094C9D
:10129000206940F0020020616561206940F0400053
:1012A0002061304600F058F8216941F6FD72114086
:1012B000216170BD0020024008490420CA68D2079D
:1012C00001D001207047CA68520701D5022070473B
:1012D000C968C906FBD50320704700000020024002
:1012E0000248016941F0800101617047002002401D
:1012F000F0B506464FF400570D46384600F02CF87E
:1013000004280CD1064C206940F001002061358092
:10131000384600F021F82169BA1E11402161F0BD64
:101320000020024010B5002306E000BF30F8134053
:1013300021F813405B1C9BB29342F7D310BD000011
:1013400003480249416003494160704723016745F2
:1013500000200240AB89EFCD00B50346FFF7ACFF9C
:1013600003E000BFFFF7A8FF5B1E012803D0002B9E
:1013700000D1052000BD002BF4D1FAE72DE9F041A2
:101380004FF0006516460F460446A8421ED310498A
:1013900004EB4600884219D2FFF7D2FFA4F10060A7
:1013A000C00A05EBC020FFF769FF002508E000BF79
:1013B00037F8151004EB4500FFF79AFF6D1CADB22E
:1013C000B542F5D3BDE8F041FFF78ABFBDE8F08133
:1013D00000000808F8B501217D2000F0AFFC4FF6B1
:1013E000FF70ADF800000020304D8DF80300694615
:1013F000284600F065F82E4F6946384600F060F840
:101400002C4E6946304600F05BF869462A4800F0E9
:1014100057F86946294800F053F80424ADF8004015
:101420008DF803406946384600F04AF849F6815085
:10143000ADF800008DF803406946304600F040F8F2
:101440004FF4EC50ADF800008DF80340694630468B
:1014500000F036F86003ADF800008DF803406946EF
:10146000284600F02DF80E20ADF8000010248DF86D
:10147000034003278DF802706946284600F020F8E3
:1014800042F20800ADF800008DF803408DF80270BC
:101490006946304600F014F80021012000F062F89F
:1014A0006102304600F093F80020F8BD00080140CA
:1014B000000C0140001001400014014000180140E0
:1014C000F0B5CA78002502F00F03D20601D58A785C
:1014D00013430A784FF00F0E12F0FF0F4FF0010286
:1014E0001CD004680F8802FA05F63740B74211D1C4
:1014F0004FEA850C0EFA0CF724EA070703FA0CF4FE
:101500003C43CF78282F02D0482F02D002E046611A
:1015100000E006616D1C082DE4D304600C88FF2CEC
:101520001ED944685FF0000606F1080702FA07F5C5
:101530000F882F40AF420FD14FEA860C0EFA0CF7FE
:10154000BC4303FA0CF73C43CF78282F00D1456108
:10155000CF78482F00D10561761C082EE4D3446073
:10156000F0BD0000F0B5144C002801DAE36900E09A
:101570006368420D120185B2C0F301579540C0F374
:101580000346032F05D0C2020AD50322B24093437B
:1015900007E023F07062636823F07063636002E029
:1015A000AB4343F0706201B12A43002801DAE261E3
:1015B000F0BD6260F0BD0000000001400246002066
:1015C00092680A4200D00120704741617047016172
:1015D0007047000001A001F007FBFEE7486172645C
:1015E0004661756C745F48616E646C6572200D0AAB
:1015F000000000000029018802D041F4806101E070
:1016000021F480610180704702460020938A128B8A
:1016100043EA024323F07F42914300D10120704707
:101620000029018802D041F0010101E021F001010F
:1016300001807047094910B588424FF0010101D17E
:101640004C0501E04FF48004204600F06BFB20467F
:10165000BDE81040002100F065BB000000540040D0
:101660000029018802D041F4807101E021F48071E9
:10167000018070470029018802D041F4007101E027
:1016800021F40071018070470CB5024600200092E1
:101690000A0F21F07F41019202D0009A143202E039
:1016A000009A090C1832009212680A4200D00120F8
:1016B0000CBD000070B50446808886B00D4620F051
:1016C0003F06684600F052FB27490298B0FBF1F153
:1016D00089B20E43A680228822F001022280234B89
:1016E0002A689A421CD85200B0FBF2F080B204285B
:1016F00000D20420491C2184A083208840F00100EE
:10170000208021884FF6F5300140A8886A8910436F
:1017100008432080A88929890843208106B070BD2C
:10172000EB88A3F53F46FF3E0BD002EBC20303EB71
:101730000212B0FBF2F080B240F48040020506D005
:1017400007E002EB4202B0FBF2F080B2F6E740F0B5
:1017500001004FF4967251434FF47A72B1FBF2F1EB
:1017600040F40040C6E7000040420F00A0860100A0
:10177000B1F5006F018803D021F40061018070474A
:1017800041F40061FAE7008AC0B2704712B141F03B
:10179000010101E001F0FE01018270470182704702
:1017A0002DE9F04788461D46164681460121FFF780
:1017B00057FF294F642439464846FFF725FF10B9E3
:1017C000641EA4B2F7D2002241464846FFF7DEFF6E
:1017D00014B9224900200860214F64243946484644
:1017E000FFF712FF10B9641EA4B2F7D23146484683
:1017F000FFF7D4FF1A4E6424B61C31464846FFF763
:1018000003FF10B9641EA4B2F7D229464846FFF779
:10181000C5FF642431464846FFF7F6FE10B9641E42
:10182000A4B2F7D201214846FFF724FF0D4D6424EE
:1018300029464846FFF728FF10B1641EA4B2F7D22C
:1018400000214846FFF7D6FE4F20401E80B2FCD252
:101850000020BDE8F08700000100030068010020BF
:10186000820007001000001038B50121480500F083
:101870004DFA0121092000F061FAC020ADF8000006
:1018800003208DF802001C208DF8030069461148E2
:10189000FFF716FE104C2046FFF7CCFE0F49002044
:1018A00088804BF6FF70C880302008812015488161
:1018B000000188810A48086001212046FFF7B0FE38
:1018C00006492046FFF7F6FE01212046FFF792FE6B
:1018D00038BD0000000C014000540040580C0020AE
:1018E000801A0600FEE7704770B50F23C4780178B0
:1018F0000122F4B1144C2468457804F4E064C4F582
:10190000E064240AC4F10406E3408478B5401C4036
:101910002C4301F1E021230181F80034007800F02C
:101920001F018A404009800000F1E020C0F800213A
:1019300070BD01F01F0082404809800000F1E020E6
:10194000C0F8802170BD00000CED00E002490843A2
:1019500002490860704700000000FA050CED00E045
:101960000907090E002806DA00F00F0000F1E02058
:1019700080F8141D704700F1E02080F800147047D3
:1019800004480168044A01F4E06111430160BFF3B7
:10199000408FFEE70CED00E00400FA0570B500246E
:1019A00004F1B000C0B2002100F0F6F800210846B2
:1019B00000F0F2F80021102000F0EEF800250121DF
:1019C000002000F0E9F86D1CEDB2802DF7D3641C07
:1019D000E4B2082CE4D370BD10B50021AE2000F0B5
:1019E000DBF80021084600F0D7F80021102000F0B5
:1019F000D3F80021402000F0CFF80021812000F032
:101A0000CBF80021CF2000F0C7F80021A12000F082
:101A1000C3F80021C82000F0BFF80021A62000F084
:101A2000BBF80021A82000F0B7F800213F2000F00B
:101A3000B3F80021D32000F0AFF80021084600F0F1
:101A4000ABF80021D52000F0A7F80021802000F09D
:101A5000A3F80021D92000F09FF80021F12000F028
:101A60009BF80021DA2000F097F80021122000F006
:101A700093F80021DB2000F08FF80021402000F0D7
:101A80008BF80021202000F087F80021022000F0D0
:101A900083F800218D2000F07FF80021142000F051
:101AA0007BF80021A42000F077F80021A62000F0A8
:101AB00073F80021AF2000F06FF80021AF2000F094
:101AC0006BF8FFF76BFF0021BDE810400846AFF34D
:101AD000008010B50446B031C8B2002100F05CF8B7
:101AE000102040EA1410002100F056F804F00F0016
:101AF000BDE8104040F00100002100F04DB80000AA
:101B00002DE9F041203A00240D468046D7B27F28C7
:101B100003D900208D1C8046EDB22946FFF7D9FF7E
:101B20000F4E00BF04EB07100121305C00F034F8C9
:101B3000641CE4B2082CF5D36D1CE9B24046FFF7F3
:101B4000C8FF002404EB071030440121007A00F0A4
:101B500023F8641CE4B2082CF4D3BDE8F081000043
:101B60002C5E00082DE9F04117460E46044600257C
:101B70000CE031462046FFF7C3FF0834E4B2782C6E
:101B800002D90024B61CF6B26D1CEDB27A5D002AB3
:101B9000EFD1BDE8F0810000084A30B41268012A94
:101BA0000AD1074C034609B1402200E0002220463A
:101BB00030BC7821FFF7F4BD30BC704768010020CD
:101BC000005400402DE9F0410E46074615461C46DC
:101BD000002102F069FE3146384602F076FE2146C9
:101BE000284602F061FE204602F0F8FCC0B201284F
:101BF00025D10021384602F068FE204602F0EEFCB6
:101C000010F0FF0F1BD10021284602F04DFE2146A7
:101C1000284602F05AFE3146384602F045FE30466C
:101C200002F0DCFCC0B2012809D10021284602F0F4
:101C30004CFE304602F0D2FC10F0FF0F02D0002024
:101C4000BDE8F0810120FBE72DE9F84F4FF01008C7
:101C5000ADF800100F468DF8038003241D46924610
:101C600083468DF802406946FFF72AFC39465846FC
:101C7000FFF7ADFC00260096ADF800504FF0480984
:101C80008DF803908DF8024069465046FFF718FC26
:101C900029465046FFF792FC012831D13946584673
:101CA000FFF793FC29465046FFF788FC40BB00969F
:101CB000ADF800508DF803808DF80240694650461B
:101CC000FFF7FEFB29465046FFF781FC0096ADF872
:101CD00000708DF803908DF8024069465846FFF772
:101CE000EFFB39465846FFF769FC012808D1294621
:101CF0005046FFF76AFC39465846FFF75FFC10B1C3
:101D00000020BDE8F88F0120FBE77047044A002956
:101D1000D16901D0014300E08143D16170470000E7
:101D200000100240044A0029116901D0014300E07B
:101D3000814311617047000000100240044A0029ED
:101D4000916901D0014300E0814391617047000037
:101D500000100240044A0029D16801D0014300E08C
:101D60008143D160704700000010024030B5224A24
:101D70005168224B11F00C0103D0042903D008292B
:101D800003D0036016E01E4913E05168536801F464
:101D900070114FF0020413F4803F04EB914104D022
:101DA00053689B0303D5154B02E0164B00E0144B20
:101DB0005943016051680F2303EA1111124B5C5C17
:101DC0000168E14041605468072505EA14241C5D60
:101DD00021FA04F48460546805EAD4241B5DD940D8
:101DE000C1605268032303EA9232074B1B1F9A5CBF
:101DF000B1FBF2F1016130BD0010024000127A0027
:101E00000024F40000093D00A00000207CB5002063
:101E100000908DF80400FE20184C8DF8000001237E
:101E20006A468021204603F009F842F22831491E13
:101E300089B2FCD2E7258DF8005001236A46802143
:101E4000204602F0FBFF012301AA8021204602F078
:101E50004DFF0223E62280212046FFF7A1FC8DF8EA
:101E6000005001236A468021204602F0E7FF01234B
:101E700001AA8021204602F039FF7CBD00540040B9
:101E80002DE9FC4106460020019005460090F52012
:101E90001E4F8DF80400012301AA8021384602F06C
:101EA000CDFF4FF6FD742046401E80B2FCD20323C6
:101EB0006A468021384602F019FF60B1142D07D917
:101EC00013A1002000F090FE4FF0FF30BDE8FC8130
:101ED0006D1CEDB2E7E79DF8010020F003008DF8DE
:101EE0000100BDF8000040BAFEF7E3FBFEF775FC09
:101EF0000E4A0F4BFEF7DCFA00220E4BFEF7D2FA29
:101F0000FEF796FC30600020E0E70000005400403F
:101F100053485432305F726561645F74656D20743C
:101F2000696D65206F757420303300007644CF777B
:101F300001405F3F000018402DE9FC4106460020AB
:101F4000019005460090F3201D4F8DF804000123F9
:101F500001AA8021384602F071FF4FF6FD74204639
:101F6000401E80B2FCD203236A468021384602F02C
:101F7000BDFE58B1142D06D912A000F035FE4FF069
:101F8000FF30BDE8FC816D1CEDB2E8E79DF8010073
:101F900020F003008DF80100BDF8000040BAFEF704
:101FA00088FBFEF71AFC0E4A0E4BFEF781FA0E4A2A
:101FB0000E4BFEF777FAFEF73BFC30600020E0E7BF
:101FC0000054004053485432305F726561645F745E
:101FD000656D2074696D65206F7574203033000065
:101FE000619FC6DE07F7653FCDCCCCCCCC6C4740BB
:101FF000034A118821F03801014311807047000025
:10200000003001400029018802D041F0400101E088
:1020100021F0400101807047F0B5294E87B030466D
:1020200000F052F80021ADF800104FF48270ADF8C6
:102030000200ADF808107015ADF80A001024ADF8D4
:102040000410ADF80C400720ADF80610ADF80E10E6
:10205000ADF810006946304600F067F8A020ADF8F2
:10206000140018208DF81700164F03258DF8165010
:1020700005A93846FFF724FA4020ADF8140048209F
:102080008DF8170005A93846FFF71AFAADF8144085
:102090008DF817408DF8165005A93846FFF710FA4D
:1020A0000021304600F05DF801213046FFF7AAFF1D
:1020B00010213846FFF78BFA07B00020F0BD000072
:1020C0000030014000080140114910B588420AD192
:1020D000841401212046FFF73DFE2046BDE8104054
:1020E0000021FFF737BE0B49884202D101210414B9
:1020F00004E0094988420AD10121C4132046FFF7B0
:1021000011FE2046BDE810400021FFF70BBE10BDB8
:102110000030014000380040003C004002460020F2
:1021200012890A4200D00120704730B502884C88DD
:1021300002F441530A88CD8822438C882C432243E1
:102140000C8922434C8922438C892243CC89224327
:102150001A430280828B22F400628283098A018200
:1021600030BD0029818802D041F0040101E021F056
:1021700004018180704700007CB50E46044630495A
:102180002F48083150F8240051F82410084340F03B
:1021900001000121FFF7D2FD29480838F4B350F8B7
:1021A00024000121FFF7B2FD18208DF80300244818
:1021B0006946203830F81400ADF8000003208DF88F
:1021C0000200204850F82400FFF77AF904208DF827
:1021D00003001B4869461C3830F81400ADF80000B5
:1021E0001848083050F82400FFF76AF9154D3146B9
:1021F000083D55F8240000F08BFC4FF44070FFF7C9
:10220000A5FB25208DF8040037208DF8060001205D
:102210008DF8070001A8FFF767FB00E00BE0012243
:1022200040F22551084800F05AFC55F824000121DD
:1022300000F025FC7CBD00680121FFF77FFDB3E7BE
:102240009C5D0008D4000020003801407047000069
:102250000149002008707047350300200CB50021AB
:10226000264801910091026842F4803202604FF4E6
:10227000A063026802F400320092019A521C01929B
:10228000009A12B9019A9A42F3D10268920333D5A7
:10229000012100911A490A6842F010020A600A6896
:1022A00022F003020A600A6842F002020A604168F2
:1022B000416041684160416841F48061416041682A
:1022C00021F47C114160416841F4F81141600168DA
:1022D00041F08071016001688901FCD5416821F0FD
:1022E00003014160416841F0020141604168C1F36E
:1022F00081010229FAD10CBD00910CBD00100240F1
:102300000020024005490020054A097802E0535C9C
:10231000491C18440129FADB7047000033030020F0
:102320003503002070B50F484FF47A710068B0FB98
:10233000F1F0B0F1807F14D220F07F404FF0E02424
:10234000401E606165170F212846FFF709FB00203A
:10235000A0610720206105212846FFF701FB00202E
:1023600070BDFEE7B000002002480168491C016012
:1023700070470000000000200F4810B5016841F0D0
:102380000101016041680D4A1140416001680C4A39
:1023900011400160016821F480210160416821F44D
:1023A000FE0141604FF41F018160FFF757FF0549AF
:1023B0004FF00060086010BD001002400000FFF800
:1023C000FFFFF6FE08ED00E00026DFF8FCB3FF4D4E
:1023D000FF4C3746B146B2469BF800000028FBD0C0
:1023E000012F35D1DFF8EC83022147464046FFF745
:1023F000ECF804213846FFF7E8F800F001FA6078BD
:10240000A1780027884223D0F1492278A4318A702C
:10241000C87000220D2002F0B2FB00210D2002F056
:10242000BFFB002002F00CFB02F0D4FEE06005E0F0
:1024300002F0D0FEE168401AC8286FD800210F20B2
:1024400002F0C1F90006F3D504214046FFF7BFF8BA
:102450006078A178884275D1FFF754FF002862D1D7
:10246000E67857E0DA48D046B130014680F802A05D
:10247000C67000220D2002F082FB00210D2002F028
:102480008FFB022002F0DCFA02F0A4FEE06005E01F
:1024900002F0A0FEE168401AC828CED800210F2023
:1024A00002F091F92842A060F2D0208940042AD598
:1024B0004FF4814200210F2002F033FB0021102055
:1024C00002F081F900F07F01182903DC0022C248E4
:1024D00002F0ADF9C048414680F80280C278B242AD
:1024E00016D1C170BA4990460A22CB31FDF767FE7A
:1024F00070B9B7480122401D042100F80820B548F2
:10250000FFF765F804E0B54A00210F2002F009FB4F
:10251000761CF6B2002EA5D0E67802E0E5E0761C47
:10252000F6B2002EFBD0B9F1000F61D1FFF7EAFE41
:1025300000287DD0DFF8988208F1050888F800A00F
:10254000E67893E0BEE000BF18F80600012870D1DD
:10255000962002F02CFA40F68C2002F03FFA9C49BB
:102560000022BE310D2081F802A0CE7002F007FBE0
:1025700000210D2002F014FB022002F061FA00217C
:102580000F2002F020F92842A060F8D020894004F2
:1025900063D502218F48FFF71AF84FF481420021DA
:1025A0000F2002F0BEFA0021102002F00CF900F01A
:1025B0007F01182903DC0022874802F038F9864899
:1025C000514680F802A0C278B2424DD1C1700821B4
:1025D0008048FEF7FCFF7E490A22D8317E48FDF78D
:1025E000EEFD30BB09F10100C0B25FEA000961D025
:1025F00043F2BC4002F0F2F9002002F02DF9002174
:102600000F2002F0E0F82842A060F8D020894004B2
:1026100040D54FF4804200210F2002F082FA0021C1
:10262000102002F0D0F840B2B0F5806F07DC01E076
:102630002FE019E081B20022674802F0F8F86648FE
:1026400063490A2280F802A090F8038080F803A072
:10265000A431FDF7B4FD68B12CE008F806A05F4A8C
:1026600000210F2002F05DFA761CF6B2002E3FF436
:102670006BAF1FE05648401D10F80810012919D112
:1026800000F808A0B9F1000F14D0A9F1010000F082
:10269000FF090FE0B9F1000F07D04D49A9F1010082
:1026A000491D00F0FF0901F806A04C4A00210F2047
:1026B00002F037FAFFF726FE00287FF48DAE0127DF
:1026C000814689E6002002F089F9002002F0C4F872
:1026D00002F080FDA046E06009E000BF02F07AFD54
:1026E000D8F80C10401AC82801D9FFF749F9002181
:1026F0000F2002F068F82842C8F80800EED0B8F8B9
:102700000800400471D54FF4814200210F2002F0EF
:1027100008FA0021102002F056F840B2B0F5806FA0
:1027200004DC81B200222C4802F081F82A4950468C
:1027300081F802A0CA7898F801309A42C1D1C870D5
:1027400023490A22B1312448FDF739FDB8B92048A0
:1027500098F80010CB300022817098F80110C170F9
:1027600001460D2002F00BFA00210D2002F018FAAC
:10277000002002F065F904211648FEF728FF1449ED
:102780000A22BE311448FDF71AFD002899D11048DD
:1027900098F80010D8300022817098F80110C170AC
:1027A00001460D2002F0EBF900210D2002F0F8F9AE
:1027B000002002F045F900210F2002F004F8000685
:1027C000F9D5012702210CE0C400002000D0272405
:1027D0003003002000080140B40C002000902724A2
:1027E00003E00548FEF7F3FEF6E5044A00210F205A
:1027F00002F097F9F0E5000000080140009027245E
:102800002DE9F84F8C4C0025DFF830B2DFF830822C
:10281000257004F1420A962002F0C9F840F68C2097
:1028200002F0DCF821788AF8021098F800108AF893
:1028300003108149002242310C2002F0A0F900214E
:102840000C2002F0ADF9022002F0FAF8002002F0AC
:1028500003F802F0BFFC07464FF4AF795E4604E090
:1028600002F0B8FCC01B484506D800210F2001F03B
:10287000AAFF30426060F3D002217248FEF7A7FE43
:10288000A08840047ED54FF481494A4600210F209C
:1028900002F047F90021102001F095FF00F07F01C0
:1028A000182903D80022684801F0C1FF664898F84B
:1028B0000020C178914266D10021C17081705E49CB
:1028C0000A224E31FDF77BFC00287DD102F0FBF996
:1028D000C4E9040102F0E4F94FF02F62C4E90601F3
:1028E000821841F10000010641EA1220009001F037
:1028F000FDFF009820F00100010E0002C4E908016C
:102900004D48D4E90423673002F0A9F94A48D4E9D4
:1029100006236B3002F0A3F94748D4E908236F304F
:1029200002F09DF9444821785D300022817098F8CA
:102930000010C1700146182002F021F90021182072
:1029400002F02EF9032002F07BF805E002F042FCD1
:10295000C01BB0F5FA7F06D800210F2001F033FF2D
:1029600030426060F2D0A088400455D54A4600212C
:102970000F2002F0D6F80021102001F024FF00F013
:102980007F0101E048E04FE0182903D800222E48DB
:1029900001F04DFF2C4E98F80000F178814243D1B0
:1029A00000272549F770B7700A2233313046FDF70A
:1029B00006FC48B9B07A4FF47A714843F17A01EBDA
:1029C000810100EB410200E02BE0307B06F58A69D3
:1029D00006F2045659F820301A4449F8202056F8D7
:1029E0002010491C46F82010A168002056F820202D
:1029F0008A420DDB01F064FA002039464FEA0902F1
:102A000046F8201042F82010401C2D28F8DB08E082
:102A1000401C2D28EADB04E00C4A00210F2002F0C4
:102A200080F82078401C20706D1CEDB22D2DFFF435
:102A3000F2AEBDE8F88F00000800002000D0272487
:102A40003103002000080140A0040020009027244A
:102A500010B5084C40F22551204600F021F800281E
:102A600007D0204600F0AAF8BDE81040C0B201F03F
:102A70003BB810BD00380140C943018070470029B0
:102A8000818902D041F4005101E021F4005181819B
:102A900070470246002012880A4200D00120704789
:102AA00030B501F01F0201240025C1F3421304FADE
:102AB00002F2012B0FD0022B0FD0838A4FEA112193
:102AC0000088134204FA01F400EA040001D000B1C6
:102AD0000125284630BD8389F0E7038AEEE710B56B
:102AE000C1F3421301F01F040121A140012B07D0C3
:102AF000022B07D01430002A026805D00A4304E0F4
:102B00000C30F8E71030F6E78A43026010BD000091
:102B100030B50446008A85B00D464CF6FF7108407A
:102B2000E98801432182A1894EF6F3100140A8886B
:102B30002A8910436A890A431043A081A08A4FF66C
:102B4000FF410840A9890143A1826846FFF70EF9B9
:102B50001948844201D1039800E00298A189090430
:102B600000EBC00101EB0010296801D5490000E02D
:102B70008900B0FBF1F06422B0FBF2F109010B090E
:102B80006FF018056B4300EB8300A3891D044FF021
:102B9000320306D503EBC000B0FBF2F000F00700F3
:102BA00005E003EB0010B0FBF2F000F00F0008436B
:102BB000208105B030BD0000003801408088C0F39E
:102BC00008007047C1F308018180704770B50D4659
:102BD0000646002403E0305D02F0E0FF641CAC42D6
:102BE000F9DB70BDFEE700000FB4054B10B503A97B
:102BF000044A029800F02AFA10BC5DF814FB0000A9
:102C0000754C0008180400200FB4084B10B504A937
:102C100002AA039800F01AFA044602A9002000F064
:102C2000ACFD204610BC5DF814FB00007B370008AB
:102C3000490050EAC12018BF04204A0D18BF40F0D7
:102C4000010040F2FF72B2EB515F08BF40F002009A
:102C5000012808BF05207047004870472004002065
:102C60002DE9F0414F1E00EBC7010446D1E90001F8
:102C700015461E4637F006020DD02A463346FDF7AC
:102C800017FC7F1E04EBC703D3E90023FDF769FBA4
:102C900037F00602F1D1022F25D0042F13D0062FD2
:102CA00018BFBDE8F0812A463346FDF701FCD4E9A0
:102CB0000A23FDF756FB2A463346FDF7F9FBD4E914
:102CC0000823FDF74EFB2A463346FDF7F1FBD4E916
:102CD0000623FDF746FB2A463346FDF7E9FBD4E918
:102CE0000423FDF73EFB2A463346FDF7E1FBD4E91A
:102CF0000223FDF736FB2A463346FDF7D9FBD4E91C
:102D00000023BDE8F041FDF72CBB00000022134674
:102D100010460149FDF73EBC0000F03F0122FDF7DF
:102D2000A8BCFDF71EBB0022134610461146FDF756
:102D300031BC40F2013200204FF0E041FDF799BC78
:102D4000024A00201107FDF794BC000001FDFFFFBF
:102D500002E008C8121F08C1002AFAD17047704764
:102D6000002001E001C1121F002AFBD170470000C2
:102D700001490860704700002004002038B504466F
:102D80006D208DF800006B46012240F606012E20D2
:102D900001F0D6FE41F6060114B140F2076201E0EF
:102DA00041F207622E2001F0AFFE38BD38B504466F
:102DB0006B4602220021362001F01CFD0E2C2CD285
:102DC000DFE804F00F07152B2B2B2B1D392B2B4481
:102DD000494E00208DF800009DF8010000F0FE0033
:102DE00019E09DF8000000F0FC00401C04E09DF894
:102DF000000000F0FC00801C8DF800000DE09DF844
:102E0000000000F0B30040F048008DF800009DF88D
:102E1000010040F080008DF801006B460122002186
:102E2000362001F08DFE0122114636200DF10103FE
:102E300001F086FE38BD9DF8000000F0B3008DF86B
:102E400000009DF8010000F07F00E4E79DF801001C
:102E500040F00200DFE79DF8010000F0FD00DAE736
:102E60009DF8000000F0CF0040F02000C4E708B556
:102E700003208DF8010001208DF800006B4602222E
:102E80000021362001F05CFE4FF4004206212D2087
:102E900001F03AFE012000F0F1FF0120FFF786FF6C
:102EA00008BD08B5010A8DF801108DF800006B46C9
:102EB000022204212D2001F043FE03208DF80000A2
:102EC0006B46012206212D2001F03AFE00208DF8EC
:102ED00000006B46012206212D2001F031FE0A215F
:102EE0002D2001F070FC08BD2DE9FF5FDDE9022017
:102EF000010DDDF838B0024318D044F61050A1F2AD
:102F0000FF3141430D140F98012820D0A5EB0B0091
:102F1000401C5FEA000A4FF00004474EDFF81C91A6
:102F2000A046504616D5CAF1000728E00F980124A4
:102F300043A2012808D0002100980F9BC0E900217E
:102F4000C0E90243BDE8FF9F6FEA0B01F4E7CBF154
:102F50000000DEE7074612E0F80707D022463346B6
:102F600040464946FDF7A4FA804689462246334644
:102F700010461946FDF79CFA04460E467F10002FB6
:102F8000EAD1DDE90201BAF1000F42464B4602DA0E
:102F9000FDF78EFA01E0FDF7FDFA04460E46002229
:102FA000284BFDF72DFC03D84FF0FF30014607E01A
:102FB0000022254B20463146FDF7D3F9FDF7F3FDFE
:102FC000102409E0002C0ADB0A220023FDF76CFC28
:102FD000019B30321A55641E50EA0102F2D1641C82
:102FE000019AC4F1110314440F9A012A03D001225B
:102FF00008430DD10AE0084304D000204FF0110B24
:103000000F9080E7A3EB0B056D1E0DE05B4504DD23
:103010004FF0000205F1010504E003DA4FF0000271
:10302000A5F10105002AECD000980F99C0E9023102
:10303000C0E9004586E70000000024400000F03FA2
:10304000300000000000F0430000E03F2DE9FF4F9A
:1030500095B09B468946064600250FE2252877D184
:1030600000242746F84A0121059400E0044316F89D
:10307000013F203B01FA03F01042F7D130782A28B3
:1030800011D06FF02F033078A0F13002092A16D842
:10309000059A44F0020402EB820203EB4202104460
:1030A000761C0590EFE759F8042B0592002A03DA05
:1030B000504244F40054059044F00204761C3078E9
:1030C0002E2816D116F8010F44F004042A280DD03A
:1030D0006FF02F023078A0F13003092B09D807EBED
:1030E000870302EB4303C718761CF3E759F8047B08
:1030F000761C30786C280FD006DC4C2817D0682856
:103100000DD06A2814D104E0742810D07A280FD189
:103110000DE044F400140AE044F4801401E044F4A7
:1031200040147278824202D104F58014761C761C19
:10313000307866280BD013DC582877D009DC0028BB
:1031400075D04528F6D04628F4D047281AD19DE1FD
:1031500018E0632835D0642879D0652812D195E12C
:10316000702873D008DC6728F1D069286FD06E28EA
:103170000DD06F2806D1B5E073282CD0752875D0F6
:10318000782874D05A46179990476D1C75E1C4F39E
:103190000250022809D003280DD0D9F800100428C5
:1031A0000DD00D6009F1040967E1D9F80010EA17A4
:1031B000C1E90052F6E7D9F800100D80F2E70D7072
:1031C000F0E719F8041B8DF8001000208DF80100BD
:1031D000EA46012003E059F804AB4FF0FF306107E5
:1031E0004FF0000102D40DE008F101018846B94218
:1031F0000FDA8045F8DB1AF808100029F4D108E04E
:1032000008F1010188468142FADB1AF8081000290A
:10321000F6D105985B46A0EB080721463846179A79
:1032200000F094FA284400EB080507E04DE029E19E
:103230000DE01AF8010B5A4617999047B8F10108AA
:10324000F7D25B4621463846179A13E142E00A223C
:103250000092C4F302524FF0000A022A08D059F833
:1032600004CB032A4FEAEC710AD00DE029E02AE0F2
:1032700009F1070121F00702F2E802C1914609E0D5
:103280000FFA8CFC4FEAEC71042A03D14FFA8CFC44
:103290004FEAEC71002907DA0A460021DCF1000C44
:1032A00061EB02012D2202E0220504D52B228DF8CC
:1032B0000420012203E0E20701D02022F7E7904634
:1032C00059E00A2102E010220DE010214FF0000A1F
:1032D00000910BE010224FF0000A44F0040408278C
:1032E000009203E008224FF0000A0092C4F3025259
:1032F000022A05D059F804CB0021032A08D009E09E
:1033000009F1070121F00702F2E802C1914605E048
:103310001FFA8CFC042A01D10CF0FF0C4FF00008BE
:10332000220728D5702806D0009B83F0100353EAAB
:103330000A0305D00EE040228DF80420012208E0A7
:103340005CEA010206D030228DF804208DF80500D9
:1033500002229046009B83F0080353EA0A030AD135
:103360005CEA010201D1620705D530228DF8042004
:103370004FF001087F1E582804D034A003900EA8F7
:1033800002900DE036A0F9E753466046009AFDF73B
:103390008BFA84460398825C0298401E0290027069
:1033A0005CEA0100F0D1029806A9081A00F1200A8F
:1033B000600702D524F4803400E00127574502DD80
:1033C000A7EB0A0000E0002000EB0A01009005983E
:1033D0004144401A0590E00306D45B462146179A03
:1033E000059800F0B3F90544002706E001A85A4605
:1033F000C05D179990476D1C7F1C4745F6DBE003C5
:103400000CD55B462146179A059800F09FF90544B4
:1034100004E030205A46179990476D1C0099481EC9
:1034200000900029F5DC08E0029802995A460078DD
:10343000491C0291179990476D1CBAF10001AAF13D
:10344000010AF1DC65E10000092801003031323366
:1034500034353637383961626364656600000000D0
:1034600030313233343536373839414243444546BA
:103470000000000000F058F90544761C3078002860
:103480007FF4ECAD19B02846BDE8F08F620700D498
:10349000062709F1070222F0070CFCE80223E146A7
:1034A00003F000485FEA080C02D00FF2702C0DE028
:1034B0005FEA045C02D50FF2682C07E05FEAC47C87
:1034C00002D00FF2602C01E0AFF2700C4FF0FF3829
:1034D00023F00043CDF850C065280CD006DC452809
:1034E00009D046281DD047283DD13DE0662818D098
:1034F00067287ED138E00021112F01DB112000E088
:10350000781CCDE9000106A90EA8FFF7EDFCDDE966
:103510000F010E9A03910021009207F1010A049114
:103520004DE04FF000400097CDE9011006A90EA82C
:10353000FFF7DAFCDDE90F0203920E9B11990022DE
:10354000DDF80CA00093049211B9791C00EB010A7C
:10355000B7EB0A0004D4C0F1FF3007F1010A049070
:10356000AAEB0700019044E0012F00DA01270021B7
:10357000112F01DD112000E03846CDE9000106A938
:103580000EA8FFF7B1FCDDE90F010E9A03910021AF
:1035900004910092BA4621070CD40399514500DAF0
:1035A0008A46BAF1010F05DD009AAAF10101515CCA
:1035B000302908D0B84202DA10F1040F06DA0121EE
:1035C000CDE9011015E0AAF10101E9E7002805DCC9
:1035D000049901440491AAEB000102E0411C514509
:1035E00000DD8A460499401A401C01904FF00040CB
:1035F0000290200704D40198504501DBCDF80480E7
:1036000000208DF84F0002980DF14F07B0F1004FE8
:1036100025D02B200E9002984FF0020800280CDADB
:10362000404202902D200E9007E00A210298FDF7FB
:1036300025F93031029007F8011DB8F10001A8F119
:103640000108F2DC02980028EFD1791E0E9808706C
:10365000307800F0200040F0450007F8020D12A875
:10366000C01B00F107081498007800B1012000EB9E
:103670000A01019801EBE07105984144401A401E8F
:103680000590E00306D45B462146179A059800F0A2
:103690005DF805441498007818B15A461799904778
:1036A0006D1CE00324D55B462146179A059800F06F
:1036B0004DF805441CE00498002807DBDDE9030110
:1036C000884203DD0098405C179901E0179930208B
:1036D0005A469047049805F10105401C0490019852
:1036E000401E019004D12E205A46179990476D1C18
:1036F000BAF10001AAF1010ADDDC05E017F8010BBF
:103700005A46179990476D1CB8F10001A8F10108BD
:10371000F4DC5B462146179A0598ABE62D000000C5
:103720002B000000200000002DE9F0410446002598
:103730001E461746880404D405E039462020B047C9
:103740006D1C641EF9D52846BDE8F0812DE9F041D5
:10375000044600251E469046C80301D5302700E0E8
:103760002027880404D505E041463846B0476D1C43
:10377000641EF9D52846BDE8F0810A68531C0B6029
:10378000107070472DE9F04D8D4F21F0004A86B042
:1037900005460C46BA452ADBAAEB070028430AD0A7
:1037A0008848824501DC1AD1CDB106B02846BDE873
:1037B000F04DFFF7B3BA844A844B2846FCF778FEF5
:1037C00007460E46824A834B28462146FCF770FE88
:1037D00006B03A463346BDE8F04DFCF7C2BD0120C5
:1037E000FFF7C6FA06B0BDE8F04DFFF79CBA7A487D
:1037F000824542DABAF1795F0BDA2846FFF718FA08
:10380000042808BFFFF79CFA284606B02146BDE809
:10381000F08D2A460B461046FCF74AFE83460246C8
:103820006E480E460B4606217844FFF719FA5A46B1
:103830003346FCF73DFE804669488A465A46334681
:1038400004217844FFF70CFA5A463346FCF730FE61
:1038500000223B46FCF785FD02460B46404651469A
:10386000FCF798FE2A462346FCF722FE06B02A46BD
:103870002346BDE8F04DFCF774BD284624F0004116
:1038800000223D463B46FCF710FE4FF0FF32FCF7AE
:10389000F0FE0646024653480F460B460621784482
:1038A000FFF7DEF932463B46FCF702FECDE90001A8
:1038B0004D4832463B4604217844FFF7D1F9324661
:1038C0003B46FCF7F5FD00222B46FCF74AFD8346FC
:1038D00002913046394602F0D1F9804643480D4600
:1038E000504517DCDDE900015A46029BFCF752FE09
:1038F00042462B46FCF7DCFD42462B46FCF731FDE9
:103900000122FCF7B6FE304A304BFCF7CBFD304AC3
:10391000304B4CE04FF0000A52460B464046FCF755
:1039200020FDCDE9031052462B4610461946FCF700
:10393000BFFD32463B46FCF7B8FDDDE90332FCF73C
:1039400029FE06460F46DDE900015A46029BFCF7B8
:1039500021FE83460091012230463946FCF789FE5C
:10396000194A1A4BFCF7A1FD06460F4601224046B4
:103970002946FCF77EFE5A46009BFCF799FD32462D
:103980003B46FCF78FFD06460F460122504629466E
:10399000FCF76FFE0E4DDFF858802A464346FCF7D1
:1039A00084FD32463B46FCF780FD2A464346FCF741
:1039B0007CFD002CD8BF81F0004106B0BDE8F08D41
:1039C0000000F03F0000F07F075C143326A6913C16
:1039D000182D4454FB21F93F0000E03FAC2E0000BD
:1039E000C22E0000362E00004C2E00003333EF3F75
:1039F000FB21E93F2DE9F047ADF57C7D8A46814604
:103A00004FF0FF354FF0FA0800244FF47A7101A807
:103A1000FCF7B1FB2DA14846FCF7B8FBB0B32C4E28
:103A2000484656F83410FCF7B1FB070011D056F8A1
:103A30003400FCF7BDFB3844A0EB09018AB20A2C24
:103A400041D201783F2908D00D2914D03D291ED03C
:103A500039E0641C0A2CE3D335E041780D2932D1DA
:103A600080780A282FD106EBC400436873B101AAFD
:103A7000414601201BE040780A2824D106EBC4000F
:103A800043681BB101AA4146022010E01BE0AAEBEB
:103A9000020101AB2C22401CCDF8008002F014F989
:103AA000014606EBC40043686BB101AA03209847A6
:103AB0000546401C07D007A0FFF796F80DF57C7D62
:103AC0002846BDE8F08705A0F6E700004154000055
:103AD000140100200D0A4F4B0D0A00000D0A45523B
:103AE000524F520D0A0000002DE9F04106464FF0FA
:103AF000FF3701F06FFB154C00256168401AC8289C
:103B000003D86088B0F5007F01D36580657001F04F
:103B100061FB60600E4960880E54401C81B2618078
:103B20000A2E02D00D2E0DD008E06078012805D1B4
:103B30000748FFF75FFF6570074665806570384688
:103B4000BDE8F08101206070F9E70000C4000020AA
:103B5000580A002070B501210820FEF7EFF8012176
:103B60000846FEF7EBF801213048FDF7FBFC304C2E
:103B70004FF400735D10204622462946FEF764F894
:103B800010F0FF0F42D02BA0FFF72EF8EE012946D0
:103B90002D4D334622462846FEF756F810F0FF0F0B
:103BA00036D02AA0FFF720F8E3142046224602214F
:103BB000FEF74AF810F0FF0F2CD029A0FFF714F8F9
:103BC0002315224608212846FEF73EF810F0FF0F85
:103BD00022D028A0FFF708F82023204622460821FB
:103BE000FEF732F810F0FF0F18D027A0FEF7FCFF09
:103BF0001023224631462846FEF726F810F0FF0F24
:103C00000ED026A0FEF7F0FF012070BD28A008E02E
:103C10002BA006E02FA004E033A002E037A000E0D4
:103C20003AA0FEF7E1FF002070BD00000002300066
:103C3000000C01405042382D5042392073756363A7
:103C40006573730D0A000000000801405041382DD3
:103C50005042313520737563636573730D0A00003C
:103C60005042312D50423131207375636365737357
:103C70000D0A00005041332D5042313020737563DE
:103C8000636573730D0A00005042332D5042352096
:103C9000737563636573730D0A000000504131351D
:103CA0002D50423420737563636573730D0A0000F1
:103CB000205042382D504239206661696C0D0A004F
:103CC000205041382D50423135206661696C0D0A13
:103CD00000000000205042312D50423131206661F9
:103CE000696C0D0A00000000205041332D50423114
:103CF00030206661696C0D0A0000000020504233DC
:103D00002D504235206661696C0D0A00205041310A
:103D1000352D504234206661696C0D0A00000000A8
:103D200010B500F0F5FB00F000FC4FF480631A01C1
:103D300091110801FDF746FF10F0FF0F11D00CA004
:103D4000FEF752FF4FF400631A0191110801FDF7CD
:103D500039FF10F0FF0F06D0BDE8104009A0FEF7B4
:103D600043BF0DA000E010A0FEF73EFF002010BDF5
:103D7000494F20342D3620737563636573730D0AC4
:103D800000000000494F20352D37207375636365AF
:103D900073730D0A00000000494F20342D36206651
:103DA00061696C0D0A000000494F20352D372066EF
:103DB00061696C0D0A0000002DE9F0412D4E0123D0
:103DC0006D24F3723346B4465C7334467223A37396
:103DD0000223E373284BB6461F782346753C1F74B5
:103DE000A5895D742B0A8CF812300A2390FBF3FC32
:103DF0008EF813C090FBF3FC4FEA1C2C8EF814C015
:103E000091FBF3FC91FBF3F18EF815C0B446090A5F
:103E10008CF8161092FBF3F18CF8171092FBF3F16B
:103E20003246090A117690FBF3F190FBF3F05176DC
:103E3000000A907610460D21C376017711461020B6
:103E40000873B570F77000221F2000F098FE002163
:103E50001F2000F0A5FE002000F0F2FD00210F2041
:103E600000F0B1FC0006F9D5E068401CE060BDE858
:103E7000F08100007D0000203103002010B50446D1
:103E800001F0A8F904EB000401F0A4F9001B0028DC
:103E9000FADD10BD002805D04FF0E0214FF40000FE
:103EA000C1F80001704710B51720FDF7DDF90028B3
:103EB00005D04FF0E0224FF40001C2F8801110BD90
:103EC0002DE9FC41454E0024A6F1B40556F8240026
:103ED000002808DD55F8241091FBF0F0214600F091
:103EE00085FE45F82400641C2D2CEFDB95E80700C7
:103EF000FFF762FF3A4F002456F82400002813DD34
:103F000055F82400FCF7CCFB3946FCF7ECF9FCF73C
:103F100064FCCDE90001224632A13548FEF774FE6B
:103F2000334934A0FEF760FE641C2D2CE4DB3068BE
:103F3000002817DD2868FCF7B3FB3946FCF7D3F9F6
:103F4000FCF74BFC02460B462CA12948FEF75CFE11
:103F50002DA202210020FDF705FE254A02210020A6
:103F6000FDF700FE7068002817DD6868FCF798FB15
:103F70003946FCF7B8F9FCF730FC02460B4624A1A1
:103F80001B48FEF741FE25A204210020FDF7EAFDB3
:103F9000174A04210020FDF7E5FDB06800281ADD6E
:103FA000A868FCF77DFB3946FCF79DF9FCF715FC8A
:103FB00002460B4612A10E48FEF726FE17A2062166
:103FC0000020FDF7CFFD02B00621BDE8F041084A10
:103FD0000020FDF7C7BDBDE8FC810000A40900205A
:103FE00000007A44616E25643A25332E32666D00F6
:103FF000A40C002025730D0A00000000616E303A09
:1040000025332E32666D0000200909202020000093
:10401000616E313A25332E32666D000009092000A9
:104020002DE9FC5F82460020009004466D46019019
:1040300004F128002919C0B200F0B2F8641CE4B2FF
:10404000062CF5D3BDF900000011FCF729FB06464C
:10405000BDF902000011FCF723FB0446BDF9040082
:104060000011FCF71DFB05463046FCF7B6FB024687
:104070000B463EA0FEF7B8FD2046FCF7AEFB02461D
:104080000B463DA0FEF7B0FD2846FCF7A6FB024616
:104090000B463CA0FEF7A8FD3046FCF741FB00288C
:1040A00000DA4042FCF7FCFA83462046FCF738FB76
:1040B000002800DA4042FCF7F3FA04462846FCF7F1
:1040C0002FFB002800DA4042FCF7EAFA8146FCF7B1
:1040D00084FB4FF080480022434601F081F80546FA
:1040E0000E462046FCF779FB0022434601F078F8A3
:1040F00007460C465846FCF770FB0022434601F089
:104100006FF83A462346FCF72CF92A463346FCF76B
:1041100028F901F0B3FDFCF78BFB04460146484645
:10412000FCF7A2FB00D2A14621464846FCF7DBF88B
:10413000FCF753FBFFF726FB0122FCF79AFA144A1F
:10414000144BFCF727FA0022134BFCF7B1F9FCF7EC
:104150006FFB01461148FCF7C0F810F1FF4F00D388
:104160000020CAF800000020BDE8FC9F6163635F87
:10417000783A25660D0A00006163635F793A256627
:104180000D0A00006163635F7A3A25660D0A00003C
:104190001F85EB51B81E0940008056400000B44214
:1041A0002DE9F047384E0F46814632254FF4003452
:1041B00021463046FDF768FA0028F9D10121304642
:1041C000FDF74EFA314C30462146FDF75DFA0028E6
:1041D000F9D0002229463046FDF7D8FADFF8B08042
:1041E00030464146FDF710FA0028F9D049463046DE
:1041F000FDF7D4FADFF8988008F10208414630460E
:10420000FDF702FA0028F9D001213046FDF728FA1F
:1042100021463046FDF738FA0028F9D00122294618
:104220003046FDF7B3FA1B4C30462146FDF7ECF95A
:104230000028F9D0174C3E3421463046FDF7E4F90A
:104240000028F9D03046FDF79EFA04464FF2FF7180
:104250003046FDF78DFA00213046FDF7CBF90121FC
:104260003046FDF707FA094D0F3529463046FDF770
:104270000BFA0028F9D100213046FDF7BBF93C705C
:104280000020BDE8F087000000540040010000104D
:10429000820007000200030010B50B4602463221DF
:1042A0000248FDF77DFA002010BD000000540040D8
:1042B00010B537212020FFF7EFFF03212120FFF762
:1042C000EBFFC0212220FFF7E7FF88212320FFF723
:1042D000E3FF7F213020FFF7DFFF02213220FFF7CD
:1042E000DBFF03213320FFF7D7FF5F21BDE810403C
:1042F0002020FFF7D1BF00002DE9F84F04460578D4
:10430000407978494FF00009C84631F8107061785B
:104310007548491ECEB20163042D75D0072D73D0A8
:1043200000218A46217801736F49E2798969002A60
:104330006CD021F480018161217A4173217A4FF49C
:104340004033826903EA01410A43834682610021C6
:10435000042000F0E6FB3A4642F604012E2000F06D
:10436000D3FB3046FEF70AFD604F61490522785DB8
:1043700000EB8000431807212B2000F0E1FB5D4992
:10438000012201EB0A030B21282000F0D9FB785D04
:10439000594951F820200C21282000F0C2FBE07977
:1043A000564901EB8000A17930F811200221272025
:1043B00000F0AAFB5248042130F81620272000F014
:1043C000A3FBE07938B3A07804282AD028208DF800
:1043D000000020220621272000F096FB6B460122D8
:1043E0002621272000F0ACFB4648E17800EB0610C0
:1043F00050F821200821272000F093FBB4F8090091
:10440000A0B117E000E001E001218AE741F480015A
:10441000FF08816190E764220621272000F074FBE9
:10442000E2E710208DF800000246D3E741F2410098
:10443000A4F80900B4F809202021272000F064FB2B
:10444000314F0C2123203A6800F06BFB07EB46004C
:1044500004218288232000F057FBA07958B1E0792D
:104460002A49012243180021212000F069FB4FF066
:1044700003094FF0010805F00F00290740EA116019
:1044800061784FF4402202EA81410843920002EA37
:10449000095108434FF4003202EA484108432179A8
:1044A0004FF0F86202EA81510843617940EAC16243
:1044B00000211F2000F035FBA07861784FF4004305
:1044C00008430204CBF81020E179082043EA413187
:1044D0000A430021CBF8102000F023FB0020BDE8A8
:1044E000F88F000098640008680C00201C64000825
:1044F0003C6400085A6400082464000868640008EA
:1045000074640008786400085C640008646400084F
:1045100010B50021362000F056F940F44032002159
:10452000BDE81040362000F0FCBA08B56B46042206
:104530000021262000F05EF99DF802006B4620F075
:10454000300040F010008DF80200042200212620E7
:1045500000F0F6FA08BD10B504460421362000F03C
:1045600032F914B140F4006201E020F40062042149
:10457000BDE81040362000F0D4BA000038B5402025
:104580008DF8000000210E2000F01DF90446FFF711
:104590008AFC0546002211460E2000F0C2FA6B4646
:1045A000012200210D2000F0CBFA0A4A00210F2041
:1045B00000F0B7FA00F08EFA224600210E2000F03B
:1045C000B0FA2846FFF766FC0349002081F82C006A
:1045D00038BD0000F8FF2724680C002010B5044601
:1045E0002821262000F0EFF8204000D0012010BD47
:1045F00070B50546164600240846FCF7EEF8022280
:10460000FCF737F8FCF7A5F8FF2800DDFF202A4962
:10461000012EA1F108020CD0042D2DD0072D2BD096
:10462000515D01EB810202EBC101244A02EB410121
:1046300033E0042D0AD0072D08D0515D01EB810233
:1046400002EB41111C4A083211440FE0495D1B4A3C
:1046500001EB0111883A02EB810100E0641C0A5D64
:104660008242FBDBA4F11C001CE0641C0A5D824258
:10467000FBDBA4F1170015E0495D01EB8102C2EB01
:1046800081110E4A6832114400E0641C0A5D8242C6
:10469000FBDBA4F11E0005E0641C0A5D8242FBDB2B
:1046A000A4F11100FBF7FCFFFCF797F8BDE87040A0
:1046B000034A044BFBF7FCBED2640008F665000811
:1046C0007B14AE47E17A843F7CB50546324C04202A
:1046D0008DF8000000216175216384F8251084F8AD
:1046E0002C10A1836163A16300F080F82B49206046
:1046F000884201D088177CBD0020FEF757FB6B462F
:1047000001220021242000F01BFA1E20FEF7C9FB25
:1047100086B2300AA0730420FEF7C3FB10F0FF0F2F
:104720000CD002208DF8040001AB012212212D20B3
:1047300000F006FAA08B40F48050A0830620FEF71C
:10474000B0FB60600720FEF7ACFBA06016F01F0016
:10475000207501D110202075C0B200F02FFAE807B3
:1047600006D0FEF784FBA08B40F40060A08309E034
:104770000521362000F014F820F4007205213620BF
:1047800000F0C2F90120FEF711FB0021042000F027
:104790001AF8A06100207CBD680C00203001CADE40
:1047A00038B54FF6FF7489B280B26B46022200F032
:1047B00021F830B99DF800009DF8011000EB0120B0
:1047C00084B2204638BD38B54FF0FF3489B280B28C
:1047D0006B46042200F00EF830B903216846425CB3
:1047E000491E02EB0424FAD5204638BD00210846B4
:1047F000FFF7E9BF08B551B140F040008DF8000067
:10480000C8B27F2907D88DF8010002200BE08DF88F
:104810000000012007E040F080008DF80100C80989
:104820008DF802000320694601F0BEF908BD30B4DE
:1048300014460A462146034630BC1120FFF7DABF72
:104840000346052200211520FFF7D4BF03460522A9
:1048500000211720FFF7CEBF38B5054600208DF8A0
:10486000000000F037F94FF4807422460DB14FF488
:10487000407200210D2000F047F99DB16B460122E6
:1048800003210F20FFF7B6FF9DF80000000709D5B0
:10489000FFF774FE224600210D2000F035F94FF09D
:1048A000FF3038BD002038BD08B501438DF8001039
:1048B000080A8DF80100080C8DF802006B460322EF
:1048C0000821262000F03CF908BD08B501438DF809
:1048D0000010080A8DF80100080C8DF802006B46E4
:1048E00003220C21262000F02BF908BD02460121ED
:1048F0000A2000F016B938B50446C0076B464FF0E1
:1049000002024FF000014FF026002DD0FFF772FF9A
:104910009DF80100012220F03C0040F014008DF8C9
:104920000100114626200DF1010300F009F96B4644
:10493000012202213620FFF75DFF9DF800006B4643
:1049400040F084008DF8000001220221362000F0A2
:10495000F7F810208DF8000001208DF801000222E8
:1049600028216B4636200BE0FFF744FF9DF801003D
:104970006B4620F014008DF8010002220021262051
:1049800000F0DEF8A00711D50F208DF800006B466F
:1049900001222A21362000F0D3F800208DF80000F3
:1049A0006B4601222A21362000F0CAF838BD10B526
:1049B000044600211A20FFF706FFC4F313026FF329
:1049C000130002430021BDE810401A2000F0A9B8EE
:1049D000024641F604012E2000F096B838B505468F
:1049E0006B46012203210420FFF704FF104C75B130
:1049F0002A4600210C2000F087F89DF8000040F0C6
:104A000010008DF80000A06940F0805008E09DF88B
:104A1000000020F010008DF80000A06920F0805008
:104A2000A0616B4601220321042000F089F838BD03
:104A3000680C002002460021182000F065B8000034
:104A4000F8B500240546224F26468DF80040800721
:104A50000BD580208DF800006B46012200210D202F
:104A600000F06EF8012087F82C00E8079DF80000A0
:104A700021D040F006008DF800006B460122002195
:104A80000D2000F05DF803210F20FFF789FE10F4E0
:104A9000816F1AD040208DF800006B460122002162
:104AA0000D2000F04DF80020FFF755FD87F82C6031
:104AB0004FF0FF3409E040F002008DF800006B4633
:104AC000012200210D2000F03BF82046F8BD000037
:104AD000680C00201CB56B46012203210F20FFF754
:104AE00089FE9DF8000000F0800100F04000B1EB6D
:104AF000400F08D001208DF80400024601AB0321CD
:104B00000D2000F01DF81CBD08B589B28DF80020FD
:104B1000120A8DF8012080B26B46022200F010F8D4
:104B200008BD38B500236C46E254120A5B1C042B06
:104B3000FADB89B280B22346042200F001F838BDC6
:104B400008B551B140F0C0008DF80000C8B27F290F
:104B500009D88DF8010002200DE040F080008DF8AA
:104B60000000012007E040F080008DF80100C80936
:104B70008DF802000320694601F0CAF808BD10B59F
:104B800014460244B2F5806F02D94FF0FF3010BDD9
:104B90000B46821E21460920FFF7D2FF002010BDE0
:104BA000054A10B5126940EA8150024300210820ED
:104BB000FFF7B7FF002010BD680C002038B5044691
:104BC0006B4601220E212B20FFF714FE9DF80000FA
:104BD00004F01F0120F01F0001438DF800106B4608
:104BE00001220E212B20FFF7ABFF38BDF0B50022CC
:104BF000134D052701EB8104134605EB84040028BF
:104C000014DD643555F8216044F82600761C45F81B
:104C10002160052E02D1002045F8210054F8220021
:104C2000521CD2B20344052AF8D306E054F82200FD
:104C3000521CD2B20344052AF8D393FBF7F0F0BD1F
:104C40002804002010B500220A60835CD400A34031
:104C50000C68521C23440B60042AF6DB10BD10B50F
:104C600000214254120A42EA03621B0A491C042929
:104C7000F7DB10BD70B5094C054640212046FDF715
:104C8000FBFEE9B22046FDF79DFF40212046FDF7DF
:104C900000FF0028F9D0284670BD00000038014010
:104CA0007CB5002425466846FFF7CAFD0420694606
:104CB0002D0245EA146522020C5C1443401EF7D510
:104CC000204629467CBD7CB5002425466846FFF772
:104CD000BDFD042069462D0245EA146522020C5CE4
:104CE0001443401EF7D5204629467CBD2DE9FF5FC1
:104CF0001D4614468B464FF0000A64264FF40037D9
:104D000039460098FCF7C0FC08B1761EF8D20121A4
:104D10000098FCF7A5FC464F642639460098FCF73E
:104D2000B3FC08B9761EF8D26426002259460098D2
:104D3000FCF72CFDDFF8F880DFF8F89008F10F0899
:104D400049460098FCF760FCA8B1002E16DC012152
:104D50000098FCF78FFC444621460098FCF794FC31
:104D60000028F9D100210098FCF744FC4FF0FF30F7
:104D700004B0BDE8F09F761EE2D2E8E76426012188
:104D80000098FCF76DFC39460098FCF77DFC08B9EB
:104D9000761EF8D26426012259460098FCF7F6FCEC
:104DA000254F00983946FCF72FFC08B9761EF8D23B
:104DB000DFF88490002609F13E094FF4006B6D1E68
:104DC00015E0642749460098FCF71EFC08B97F1ED1
:104DD000F8D20098FCF7D7FC04F8010B594600986C
:104DE000FCF7C6FC01210098FCF704FC761CAE42DF
:104DF000E7D30098FCF7C7FC20704FF2FF710098D2
:104E0000FCF7B6FC00210098FCF7F4FB01210098A8
:104E1000FCF730FC444621460098FCF735FC00289E
:104E2000F9D100210098FCF7E5FB5046A0E700000F
:104E30000100001082000700020003002DE9F04786
:104E40001F46164688468146002542F20F740AE046
:104E500032784146484600F00BF82046761C401E4A
:104E600080B2FCD26D1CBD42F2D3BDE8F0870000D9
:104E70002DE9F0410F46164680460121FCF7F0FB74
:104E8000224D642429464046FCF7BEFB10B9641E3F
:104E9000A4B2F7D2002239464046FCF777FC14B999
:104EA0001B49002008601B4D642429464046FCF73E
:104EB000ABFB10B9641EA4B2F7D231464046FCF7F2
:104EC0006DFC144D6424AD1C29464046FCF79CFB48
:104ED00010B9641EA4B2F7D201214046FCF7CAFB08
:104EE0000D4D642429464046FCF7CEFB10B1641EEC
:104EF000A4B2F7D200214046FCF77CFB42F22730F7
:104F0000401E80B2FCD20020BDE8F0810100030009
:104F10006801002082000700100000107CB500F03E
:104F200035F958A0FDF760FE00F07CFE00F0A3FE0E
:104F30000120FFF7C9FB401C5CD000F099FE5648E9
:104F4000FFF7DAF90120FFF7D6FC48F2B600FFF7C9
:104F50003FFD0020FFF76EFD002150A20846FCF740
:104F600001FE51A0FDF740FE53A0FDF73DFE5C4859
:104F70005A4A5949C0E900125B4A5A49C0E902122B
:104F80000021C0E90411594AC0E90612C0E908111C
:104F9000C0E90A11C0E90C11C0E90E11C0E91011F5
:104FA00053490322D1E90001CDE900016946514886
:104FB000FCF7B8F9BDF8000001214F4C012801D0E1
:104FC000002833D02180BDF802004C49FF2801D8C9
:104FD0006080087009784AA0FDF706FEFCF732F9F8
:104FE00000214DA20846FCF7BDFDFBF793FE20888B
:104FF000F0B144E04CA0FDF7F7FD002150A20846B7
:10500000FCF7B0FD514C4FF400564FF47A75314621
:105010002046FCF7DCFA2846FEF730FF31462046F2
:10502000FCF7D3FA2846FEF729FFF0E7002020809E
:10503000BDF80200464D474EFF2802D86080287018
:105040003070618844A0FDF7CFFD28783178884220
:1050500001D146A200E049A200210846FCF782FDEA
:105060009620FFF7A4FC40F68C20FFF7B7FC2878C9
:105070003178884201D1FDF7EBF8FDF7A5F9002062
:105080007CBD000068656C6C6F2064776D313030DA
:1050900030210D0A0000000030000020494E495424
:1050A0002050415353000000696E69742070617391
:1050B00073210D0A000000004149542D4255303142
:1050C0002D444220563130302054323032302D358C
:1050D0002D31370D0A000000B81E85EB51B8BE3FD8
:1050E000B8040020C3F5285C8FC2D53F0000D03F34
:1050F000745D0008000001086401002034030020F2
:105100006465766963653A616E63686F72204944CD
:105110003A25640D0A0000004453205457522041A0
:105120004E54484F5200000064776D3130303020CB
:10513000696E6974206661696C210D0A00000000C7
:10514000494E4954204641494C000000001001409E
:1051500031030020320300206465766963653A54A8
:1051600041472049443A25640D0A00004453204D2C
:105170004153544552205441473A00004453205370
:105180004C415645205441473A00000010B50121DA
:105190007D20FCF7D3FD01210803FCF7CFFD0121A1
:1051A0008803FCF7B3FDFCF715F9FDF7BBF8FCF736
:1051B00033FF6420FEF762FE00F094FDFCF754FB21
:1051C000FFF776F8FCF722FEFCF706FCBDE810407E
:1051D000FCF7E4BB014800687047000000000020B5
:1051E0002DE9F04D16460F4694B01C4621F00041C3
:1051F00023F00042002814BF4FF0010C4FF0000CC8
:105200000CEB470CFE4B0CEB03054FEA630C6545BA
:105210002BD3350018BF012505EB44051D44F94B80
:105220009D4222D3F84B52EA060C02D09F4205D190
:1052300048B914B000201946BDE8F08D002808BF19
:105240004FF0000C01D04FF0010C0CEB470313F5AD
:10525000001F0AD8002E14BF4FF0010C4FF0000CB5
:105260000CEB440313F5001F07D914B03246234654
:105270003946BDE8F04DFDF754BDDFF890834FF09F
:10528000000A002FB8BF424523DAE14B9A42A8BF7B
:105290004FF0020A1DDADC4B93421ADCDD4B03EBC4
:1052A0002253142B08DDC3F1340C26FA0CF303FA55
:1052B0000CFCB4450DD108E05EB9C3F1140C22FA20
:1052C0000CF303FA0CFC944503D103F00103C3F182
:1052D000020A51EA00031BD1002C19DA002F18BF73
:1052E000BAF1020F02D0BAF1010F07D00220FDF788
:1052F0003FFD14B0BDE8F04DFDF708BD0220FDF7FD
:1053000037FDFDF703FD14B081F00041BDE8F08DDD
:10531000330070D1424525D107F1804212F5801249
:1053200001BF00280020B84914B008BFBDE8F08DC7
:10533000B548884207DC002CA1BF1846214614B0AE
:10534000BDE8F08D07E0002CBFBF184684F0004197
:1053500014B0BDE8F08DB0497944D1E9000114B032
:10536000BDE8F08DDFF8A0C262452AD1002C24DA16
:1053700039B1414517D1002804BF002002461CD195
:1053800006E040B10220FDF7F3FCFDF7D2FC0A462F
:10539000394600F0D7BA9D4A394614B0002062F36E
:1053A0001E01BDE8F08D08DA14B03B46BDE8F04DB3
:1053B000024600206146FBF7EDB814B03946BDE85F
:1053C000F08D414517DAB4F1804F0CD0A4F10053B1
:1053D000B3F1FF530FD13B1E0DDB14B01946BDE8EE
:1053E000F04D00F04BBC3B4614B00246BDE8F04D1A
:1053F0001946FBF75DB8050027F000433AD1E1B14B
:10540000414537D1002F06DD002CA1BF00204146C9
:1054100014B0BDE8F08D002F01DD002C1FDB002F44
:1054200016DA002C14DBBAF1010F4FF0000014BFA4
:1054300076497A4914B0BDE8F08DBAF1020F18BF71
:10544000002F0CD0BAF1010F09D1002F07DA0BE0C1
:10545000002FB8BF002C0DDABAF1010F04D00020E4
:1054600014B00146BDE8F08D14B000204FF00041AB
:10547000BDE8F08D4FF0010808EBE77CCDF814C0D3
:105480005CEA0A0C0DD0DFF898C162457EDDDFF8DA
:1054900094C1654B624512DD8B420ADB002C18DBA0
:1054A00023E00120FDF764FC14B0BDE8F04DFDF7EA
:1054B0003ABC554A8A4202DC002C0ADC15E09942CB
:1054C00002DA002C11DA04E04F4B994219DD002C6E
:1054D0000BDD0220FDF74CFCFDF72BFC4B4A14B012
:1054E00061F31E021146BDE8F08D0220FDF740FC7D
:1054F000FDF726FC444A14B061F31E021146BDE8D4
:10550000F08D00223946FAF7CDFF07460D466FF0C1
:105510000102FBF7AEF84FF05532444BFAF7C5FFE6
:105520003A462B46FAF7C4FF0022414BFAF7BDFF7B
:1055300080468B463A462B4610461946FAF7B8FF86
:1055400042465B46FAF7B4FF88460E904FF0C042E1
:10555000384B38462946FAF7ABFF83460091364A66
:10556000344B41460E98FAF7A3FF80460191334A27
:10557000334B38462946FAF79BFF4246019BFAF720
:1055800091FF0D4602460B460C9000E011E0584694
:105590000099FAF7E6FE002788465A463846009BEF
:1055A000FAF780FF2B460C9AFAF77FFF024600F0CD
:1055B00079B90020B1F5801F07DA3522284619464F
:1055C000FBF757F805466FF0340000EB2150A0F2CE
:1055D000FF300190C1F3130040F07F6141F0405172
:1055E000029118498842D8BF4FF0000B35DD1649AB
:1055F0008142C8BF4FF0010B2FDC4FF0000B25E0BC
:10560000FFFF1F00FFFF0F000000F03F0000F07FD2
:105610000000404301FCFFFF541400000000F0FFB5
:105620000000E0410000F043FFFFEF3F5555D53F3C
:105630000000E03F4715F73FFE822B6544DF5DF831
:105640000BAE543E8E9803007AB60B000198401CB6
:1056500001900298A0F580100290FF4802997844CA
:1056600000EBCB000991D0E9002328460B9312925E
:10567000FAF718FF00910A9028460B9B129A099995
:10568000FAF76FFE02460B460020F449FAF782FF54
:10569000CDE90C010B46024600990A98FAF708FF7B
:1056A0000690EF48884600277844029900681090D9
:1056B0004FF0005040EA610000EB8B4000F5002104
:1056C00002910B9B129A1098FAF7ECFE2A46099B5E
:1056D000FAF7EBFE3A464346FAF7EAFE08911290D3
:1056E00038464146029B109AFAF7E2FE009B0A9A5E
:1056F000FAF7DBFE089B129AFAF7D4FEDDE90C23D9
:10570000FAF7D6FE0B91069A1290434610461946B8
:10571000FAF7CEFE05460246D2480B460A9106210C
:105720007844FDF79DFA0A9B2A460891029010469C
:105730001946FAF7BDFE089B029AFAF7B9FE05462C
:105740000991434638461946069AFAF70AFE0B9B1A
:10575000129AFAF7ADFE2A46099BFAF702FECDE946
:1057600008013A46434610461946FAF7A1FE0A9147
:105770000022BD4B0090FAF7F4FDDDE90823FAF7AB
:10578000F0FD0D463A46B84B3846FAF78BFE0A9BB9
:10579000009AFAF787FEDDE90823FAF786FECDE9DD
:1057A00008013A462B4610464146FAF781FE009121
:1057B0000A90DDE908014346069AFAF779FE069059
:1057C00088462B463A460B991298FAF771FE4346E3
:1057D000069AFAF7C6FD80460B4602460D910099DF
:1057E0000A98FAF7BEFD00200F460546009B0A9A6C
:1057F000FAF758FE42460D9BFAF757FE88460E9080
:105800004FF06042994B28463946FAF751FE029113
:105810000090974A954B41460E98FAF749FE80460C
:105820000391944A944B28463946FAF741FE424682
:10583000039BFAF796FD914A7A4402EBCB03D3E936
:105840000023FAF78EFD054607910198FAF736FF17
:105850000C9003912A46079B02990098FAF781FD64
:10586000874A7A4402EBCB03D3E9002393460193A2
:10587000FAF777FD039B0C9AFAF773FD0027884629
:105880003846039B0C9AFAF70DFE5A46019BFAF72D
:1058900009FE029B009AFAF705FE2A46079BFAF7D3
:1058A00004FE02460020069005986C4DAAF1010303
:1058B000184301D1734D069000200B4604903046EA
:1058C0002146FAF7F5FD82468B46234630461946B7
:1058D000049AFAF7E7FD3A464346FAF7E9FD5246DD
:1058E0005B46FAF73EFD06468A463A46434621465F
:1058F0000498FAF7DDFD04460F4632465346FAF7A0
:1059000030FD614A8B46914221DBABEB020353EA47
:10591000000210D122463B46FAF7C4FD80460391AF
:105920005A4A5B4B30465146FAF71BFD4246039BF1
:10593000FAF766FF27D20220FDF71AFAFDF7F9F908
:105940000A46294614B062F31E01BDE8F08D514BA2
:105950002BF000429A4216D34F4A0BEB020353EA54
:10596000000208D122463B46FAF79CFD32465346D8
:10597000FAF746FF07D80220FDF7FAF9FDF7E0F93C
:105980000A462946DEE72BF000404449444A01EB31
:1059900020514FF00008824223DA481C4FF4801156
:1059A00021FA00F058443F4AC0F30A517A443E4B72
:1059B000A1F2FF31CB4020EA0303C0F3130040F40F
:1059C000801CC1F1140012682CFA00F8BBF1000F22
:1059D000B8BFC8F1000820463946FAF763FD04460F
:1059E0000F4622463B4630465146FAF7BAFC4FF086
:1059F000000B5A462D4B58460391FAF759FD00917A
:105A00000A902B4A2B4B58460399FAF751FD049103
:105A1000029022463B4658460399FAF743FD324628
:105A20005346FAF742FD244A244BFAF741FD049B02
:105A3000029AFAF796FC07468A46009B0A9AFAF7FA
:105A400090FC04460E46009B0A9AFAF72BFD3A4654
:105A50005346FAF72AFD33E0C61000000000F03F7D
:105A600004110000341000000000084009C7EE3F98
:105A7000FD033ADCF5015B14E02F3EBE0C0F000085
:105A8000D20E00000000F0BF00009040FE822B65A7
:105A90004715973C00CC904000346F3F01FCFFFF5E
:105AA0000000E03F000E0000FFFF0F00432EE63F26
:105AB000396CA80C615C20BEEF39FAFE422EE63F3D
:105AC0000746224633460F9110461946FAF7F0FC76
:105AD000834602462E488A460B4605217844FDF748
